{
  "_format": "hh-sol-artifact-1",
  "contractName": "MyToken",
  "sourceName": "contracts/MyToken.sol",
  "abi": [
    {
      "inputs": [],
      "stateMutability": "nonpayable",
      "type": "constructor"
    },
    {
      "anonymous": false,
      "inputs": [
        {
          "indexed": true,
          "internalType": "address",
          "name": "owner",
          "type": "address"
        },
        {
          "indexed": true,
          "internalType": "address",
          "name": "spender",
          "type": "address"
        },
        {
          "indexed": false,
          "internalType": "uint256",
          "name": "value",
          "type": "uint256"
        }
      ],
      "name": "Approval",
      "type": "event"
    },
    {
      "anonymous": false,
      "inputs": [
        {
          "indexed": true,
          "internalType": "address",
          "name": "previousOwner",
          "type": "address"
        },
        {
          "indexed": true,
          "internalType": "address",
          "name": "newOwner",
          "type": "address"
        }
      ],
      "name": "OwnershipTransferred",
      "type": "event"
    },
    {
      "anonymous": false,
      "inputs": [
        {
          "indexed": true,
          "internalType": "address",
          "name": "from",
          "type": "address"
        },
        {
          "indexed": true,
          "internalType": "address",
          "name": "to",
          "type": "address"
        },
        {
          "indexed": false,
          "internalType": "uint256",
          "name": "value",
          "type": "uint256"
        }
      ],
      "name": "Transfer",
      "type": "event"
    },
    {
      "inputs": [
        {
          "internalType": "address",
          "name": "owner",
          "type": "address"
        },
        {
          "internalType": "address",
          "name": "spender",
          "type": "address"
        }
      ],
      "name": "allowance",
      "outputs": [
        {
          "internalType": "uint256",
          "name": "",
          "type": "uint256"
        }
      ],
      "stateMutability": "view",
      "type": "function"
    },
    {
      "inputs": [
        {
          "internalType": "address",
          "name": "spender",
          "type": "address"
        },
        {
          "internalType": "uint256",
          "name": "amount",
          "type": "uint256"
        }
      ],
      "name": "approve",
      "outputs": [
        {
          "internalType": "bool",
          "name": "",
          "type": "bool"
        }
      ],
      "stateMutability": "nonpayable",
      "type": "function"
    },
    {
      "inputs": [
        {
          "internalType": "address",
          "name": "account",
          "type": "address"
        }
      ],
      "name": "balanceOf",
      "outputs": [
        {
          "internalType": "uint256",
          "name": "",
          "type": "uint256"
        }
      ],
      "stateMutability": "view",
      "type": "function"
    },
    {
      "inputs": [],
      "name": "decimals",
      "outputs": [
        {
          "internalType": "uint8",
          "name": "",
          "type": "uint8"
        }
      ],
      "stateMutability": "view",
      "type": "function"
    },
    {
      "inputs": [
        {
          "internalType": "address",
          "name": "spender",
          "type": "address"
        },
        {
          "internalType": "uint256",
          "name": "subtractedValue",
          "type": "uint256"
        }
      ],
      "name": "decreaseAllowance",
      "outputs": [
        {
          "internalType": "bool",
          "name": "",
          "type": "bool"
        }
      ],
      "stateMutability": "nonpayable",
      "type": "function"
    },
    {
      "inputs": [
        {
          "internalType": "address",
          "name": "spender",
          "type": "address"
        },
        {
          "internalType": "uint256",
          "name": "addedValue",
          "type": "uint256"
        }
      ],
      "name": "increaseAllowance",
      "outputs": [
        {
          "internalType": "bool",
          "name": "",
          "type": "bool"
        }
      ],
      "stateMutability": "nonpayable",
      "type": "function"
    },
    {
      "inputs": [
        {
          "internalType": "address",
          "name": "to",
          "type": "address"
        },
        {
          "internalType": "uint256",
          "name": "amount",
          "type": "uint256"
        }
      ],
      "name": "mint",
      "outputs": [],
      "stateMutability": "nonpayable",
      "type": "function"
    },
    {
      "inputs": [],
      "name": "name",
      "outputs": [
        {
          "internalType": "string",
          "name": "",
          "type": "string"
        }
      ],
      "stateMutability": "view",
      "type": "function"
    },
    {
      "inputs": [],
      "name": "owner",
      "outputs": [
        {
          "internalType": "address",
          "name": "",
          "type": "address"
        }
      ],
      "stateMutability": "view",
      "type": "function"
    },
    {
      "inputs": [],
      "name": "renounceOwnership",
      "outputs": [],
      "stateMutability": "nonpayable",
      "type": "function"
    },
    {
      "inputs": [],
      "name": "s_maxSupply",
      "outputs": [
        {
          "internalType": "uint256",
          "name": "",
          "type": "uint256"
        }
      ],
      "stateMutability": "view",
      "type": "function"
    },
    {
      "inputs": [],
      "name": "symbol",
      "outputs": [
        {
          "internalType": "string",
          "name": "",
          "type": "string"
        }
      ],
      "stateMutability": "view",
      "type": "function"
    },
    {
      "inputs": [],
      "name": "totalSupply",
      "outputs": [
        {
          "internalType": "uint256",
          "name": "",
          "type": "uint256"
        }
      ],
      "stateMutability": "view",
      "type": "function"
    },
    {
      "inputs": [
        {
          "internalType": "address",
          "name": "to",
          "type": "address"
        },
        {
          "internalType": "uint256",
          "name": "amount",
          "type": "uint256"
        }
      ],
      "name": "transfer",
      "outputs": [
        {
          "internalType": "bool",
          "name": "",
          "type": "bool"
        }
      ],
      "stateMutability": "nonpayable",
      "type": "function"
    },
    {
      "inputs": [
        {
          "internalType": "address",
          "name": "from",
          "type": "address"
        },
        {
          "internalType": "address",
          "name": "to",
          "type": "address"
        },
        {
          "internalType": "uint256",
          "name": "amount",
          "type": "uint256"
        }
      ],
      "name": "transferFrom",
      "outputs": [
        {
          "internalType": "bool",
          "name": "",
          "type": "bool"
        }
      ],
      "stateMutability": "nonpayable",
      "type": "function"
    },
    {
      "inputs": [
        {
          "internalType": "address",
          "name": "newOwner",
          "type": "address"
        }
      ],
      "name": "transferOwnership",
      "outputs": [],
      "stateMutability": "nonpayable",
      "type": "function"
    }
  ],
  "bytecode": "0x6080604052620000126012600a620003ee565b6200002190620f424062000406565b6006553480156200003157600080fd5b50604080518082018252601381527f4d79546f6b656e776f4e5949456c774c4553420000000000000000000000000060208083019182528351808501909452600684526526aa1898182160d11b908401528151919291620000959160039162000233565b508051620000ab90600490602084019062000233565b505050620000c8620000c2620000f560201b60201c565b620000f9565b620000ef33620000db6012600a620003ee565b620000e9906103e862000406565b6200014b565b62000480565b3390565b600580546001600160a01b038381166001600160a01b0319831681179093556040519116919082907f8be0079c531659141344cd1fd0a4f28419497f9722a3daafe3b4186f6b6457e090600090a35050565b6001600160a01b038216620001a65760405162461bcd60e51b815260206004820152601f60248201527f45524332303a206d696e7420746f20746865207a65726f206164647265737300604482015260640160405180910390fd5b8060026000828254620001ba919062000428565b90915550506001600160a01b03821660009081526020819052604081208054839290620001e990849062000428565b90915550506040518181526001600160a01b038316906000907fddf252ad1be2c89b69c2b068fc378daa952ba7f163c4a11628f55a4df523b3ef9060200160405180910390a35050565b828054620002419062000443565b90600052602060002090601f016020900481019282620002655760008555620002b0565b82601f106200028057805160ff1916838001178555620002b0565b82800160010185558215620002b0579182015b82811115620002b057825182559160200191906001019062000293565b50620002be929150620002c2565b5090565b5b80821115620002be5760008155600101620002c3565b634e487b7160e01b600052601160045260246000fd5b600181815b8085111562000330578160001904821115620003145762000314620002d9565b808516156200032257918102915b93841c9390800290620002f4565b509250929050565b6000826200034957506001620003e8565b816200035857506000620003e8565b81600181146200037157600281146200037c576200039c565b6001915050620003e8565b60ff841115620003905762000390620002d9565b50506001821b620003e8565b5060208310610133831016604e8410600b8410161715620003c1575081810a620003e8565b620003cd8383620002ef565b8060001904821115620003e457620003e4620002d9565b0290505b92915050565b6000620003ff60ff84168362000338565b9392505050565b6000816000190483118215151615620004235762000423620002d9565b500290565b600082198211156200043e576200043e620002d9565b500190565b600181811c908216806200045857607f821691505b602082108114156200047a57634e487b7160e01b600052602260045260246000fd5b50919050565b610b6080620004906000396000f3fe608060405234801561001057600080fd5b50600436106101005760003560e01c806370a0823111610097578063a457c2d711610066578063a457c2d7146101ff578063a9059cbb14610212578063dd62ed3e14610225578063f2fde38b1461023857600080fd5b806370a08231146101ab578063715018a6146101d45780638da5cb5b146101dc57806395d89b41146101f757600080fd5b8063313ce567116100d3578063313ce5671461016b578063395093511461017a57806340c10f191461018d5780635d641847146101a257600080fd5b806306fdde0314610105578063095ea7b31461012357806318160ddd1461014657806323b872dd14610158575b600080fd5b61010d61024b565b60405161011a919061099d565b60405180910390f35b610136610131366004610a0e565b6102dd565b604051901515815260200161011a565b6002545b60405190815260200161011a565b610136610166366004610a38565b6102f5565b6040516012815260200161011a565b610136610188366004610a0e565b610319565b6101a061019b366004610a0e565b61033b565b005b61014a60065481565b61014a6101b9366004610a74565b6001600160a01b031660009081526020819052604090205490565b6101a0610351565b6005546040516001600160a01b03909116815260200161011a565b61010d610365565b61013661020d366004610a0e565b610374565b610136610220366004610a0e565b6103f4565b61014a610233366004610a96565b610402565b6101a0610246366004610a74565b61042d565b60606003805461025a90610ac9565b80601f016020809104026020016040519081016040528092919081815260200182805461028690610ac9565b80156102d35780601f106102a8576101008083540402835291602001916102d3565b820191906000526020600020905b8154815290600101906020018083116102b657829003601f168201915b5050505050905090565b6000336102eb8185856104a6565b5060019392505050565b6000336103038582856105ca565b61030e858585610644565b506001949350505050565b6000336102eb81858561032c8383610402565b6103369190610b04565b6104a6565b610343610812565b61034d828261086c565b5050565b610359610812565b610363600061094b565b565b60606004805461025a90610ac9565b600033816103828286610402565b9050838110156103e75760405162461bcd60e51b815260206004820152602560248201527f45524332303a2064656372656173656420616c6c6f77616e63652062656c6f77604482015264207a65726f60d81b60648201526084015b60405180910390fd5b61030e82868684036104a6565b6000336102eb818585610644565b6001600160a01b03918216600090815260016020908152604080832093909416825291909152205490565b610435610812565b6001600160a01b03811661049a5760405162461bcd60e51b815260206004820152602660248201527f4f776e61626c653a206e6577206f776e657220697320746865207a65726f206160448201526564647265737360d01b60648201526084016103de565b6104a38161094b565b50565b6001600160a01b0383166105085760405162461bcd60e51b8152602060048201526024808201527f45524332303a20617070726f76652066726f6d20746865207a65726f206164646044820152637265737360e01b60648201526084016103de565b6001600160a01b0382166105695760405162461bcd60e51b815260206004820152602260248201527f45524332303a20617070726f766520746f20746865207a65726f206164647265604482015261737360f01b60648201526084016103de565b6001600160a01b0383811660008181526001602090815260408083209487168084529482529182902085905590518481527f8c5be1e5ebec7d5bd14f71427d1e84f3dd0314c0f7b2291e5b200ac8c7c3b925910160405180910390a3505050565b60006105d68484610402565b9050600019811461063e57818110156106315760405162461bcd60e51b815260206004820152601d60248201527f45524332303a20696e73756666696369656e7420616c6c6f77616e636500000060448201526064016103de565b61063e84848484036104a6565b50505050565b6001600160a01b0383166106a85760405162461bcd60e51b815260206004820152602560248201527f45524332303a207472616e736665722066726f6d20746865207a65726f206164604482015264647265737360d81b60648201526084016103de565b6001600160a01b03821661070a5760405162461bcd60e51b815260206004820152602360248201527f45524332303a207472616e7366657220746f20746865207a65726f206164647260448201526265737360e81b60648201526084016103de565b6001600160a01b038316600090815260208190526040902054818110156107825760405162461bcd60e51b815260206004820152602660248201527f45524332303a207472616e7366657220616d6f756e7420657863656564732062604482015265616c616e636560d01b60648201526084016103de565b6001600160a01b038085166000908152602081905260408082208585039055918516815290812080548492906107b9908490610b04565b92505081905550826001600160a01b0316846001600160a01b03167fddf252ad1be2c89b69c2b068fc378daa952ba7f163c4a11628f55a4df523b3ef8460405161080591815260200190565b60405180910390a361063e565b6005546001600160a01b031633146103635760405162461bcd60e51b815260206004820181905260248201527f4f776e61626c653a2063616c6c6572206973206e6f7420746865206f776e657260448201526064016103de565b6001600160a01b0382166108c25760405162461bcd60e51b815260206004820152601f60248201527f45524332303a206d696e7420746f20746865207a65726f20616464726573730060448201526064016103de565b80600260008282546108d49190610b04565b90915550506001600160a01b03821660009081526020819052604081208054839290610901908490610b04565b90915550506040518181526001600160a01b038316906000907fddf252ad1be2c89b69c2b068fc378daa952ba7f163c4a11628f55a4df523b3ef9060200160405180910390a35050565b600580546001600160a01b038381166001600160a01b0319831681179093556040519116919082907f8be0079c531659141344cd1fd0a4f28419497f9722a3daafe3b4186f6b6457e090600090a35050565b600060208083528351808285015260005b818110156109ca578581018301518582016040015282016109ae565b818111156109dc576000604083870101525b50601f01601f1916929092016040019392505050565b80356001600160a01b0381168114610a0957600080fd5b919050565b60008060408385031215610a2157600080fd5b610a2a836109f2565b946020939093013593505050565b600080600060608486031215610a4d57600080fd5b610a56846109f2565b9250610a64602085016109f2565b9150604084013590509250925092565b600060208284031215610a8657600080fd5b610a8f826109f2565b9392505050565b60008060408385031215610aa957600080fd5b610ab2836109f2565b9150610ac0602084016109f2565b90509250929050565b600181811c90821680610add57607f821691505b60208210811415610afe57634e487b7160e01b600052602260045260246000fd5b50919050565b60008219821115610b2557634e487b7160e01b600052601160045260246000fd5b50019056fea2646970667358221220cb98bc87c6a7961ba20911fea7137c3ec38aa11c72737912033f176c279cbf6a64736f6c63430008090033",
  "linkReferences": {},
  "deployedLinkReferences": {}
}